202007260060000400000000000000000112000000000000000001129600000000000031014991GARCIA LUIS                   000000000009964000000000000000000000000000000000000000000000000000000000000000000000000000000000000000000000000000000000PES00010000001000000000000000020200726
202007260060000400000000000000000114000000000000000001149600000000000031014991GARCIA LUIS                   000000000019900000000000000000000000000000000000000000000000000000000000000000000000000000000000000000000000000000000000PES00010000001000000000000000020200726
202007260060000400000000000000000115000000000000000001159600000000000031014991GARCIA LUIS                   000000000129800000000000000000000000000000000000000000000000000000000000000000000000000000000000000000000000000000000000PES00010000001000000000000000020200726
202007250060000400000000000000000111000000000000000001119600000000000031014991GARCIA SEBASTIAN              000000000050964000000000000000000000000000000000000000000000000000000000000000000000000000000000000000000000000000000000PES00010000001000000000000000020200725
202007220060000400000000000000000100000000000000000001009600000000000031014991GARCIA SEBASTIAN              000000000129800000000000000000000000000000000000000000000000000000000000000000000000000000000000000000000000000000000000PES00010000001000000000000000020200722
202007220060000400000000000000000101000000000000000001019600000000000031014991GARCIA SEBASTIAN              000000000089676000000000000000000000000000000000000000000000000000000000000000000000000000000000000000000000000000000000PES00010000001000000000000000020200722
202007220060000400000000000000000102000000000000000001029600000000000016961662PEREZ OMAR                    000000000123000000000000000000000000000000000000000000000000000000000000000000000000000000000000000000000000000000000000PES00010000001000000000000000020200722
202008250060000400000000000000000147000000000000000001479600000000000031014991GARCIA LUIS                   000000000019900000000000000000000000000000000000000000000000000000000000000000000000000000000000000000000000000000000000PES00010000001000000000000000020200825
202008240060000400000000000000000142000000000000000001429600000000000031014991GARCIA LUIS                   000000000078500000000000000000000000000000000000000000000000000000000000000000000000000000000000000000000000000000000000PES00010000001000000000000000020200824
202008130060000400000000000000000134000000000000000001349600000000000031014991GARCIA LUIS                   000000000009964000000000000000000000000000000000000000000000000000000000000000000000000000000000000000000000000000000000PES00010000001000000000000000020200813
202008130060000400000000000000000135000000000000000001359600000000000031014991GARCIA LUIS                   000000000019900000000000000000000000000000000000000000000000000000000000000000000000000000000000000000000000000000000000PES00010000001000000000000000020200813
202008130060000400000000000000000136000000000000000001369600000000000031014991GARCIA LUIS                   000000000078500000000000000000000000000000000000000000000000000000000000000000000000000000000000000000000000000000000000PES00010000001000000000000000020200813
202008130060000400000000000000000137000000000000000001379600000000000031014991GARCIA LUIS                   000000000041000000000000000000000000000000000000000000000000000000000000000000000000000000000000000000000000000000000000PES00010000001000000000000000020200813
202008130060000400000000000000000138000000000000000001389600000000000016961662PEREZ OMAR                    000000000088464000000000000000000000000000000000000000000000000000000000000000000000000000000000000000000000000000000000PES00010000001000000000000000020200813
202008130060000400000000000000000139000000000000000001399600000000000016961662PEREZ OMAR                    000000000129800000000000000000000000000000000000000000000000000000000000000000000000000000000000000000000000000000000000PES00010000001000000000000000020200813
202008130060000400000000000000000133000000000000000001339600000000000031014991GARCIA LUIS                   000000000129800000000000000000000000000000000000000000000000000000000000000000000000000000000000000000000000000000000000PES00010000001000000000000000020200813
202008100060000400000000000000000116000000000000000001169600000000000031014991GARCIA LUIS                   000000000129800000000000000000000000000000000000000000000000000000000000000000000000000000000000000000000000000000000000PES00010000001000000000000000020200810
202009260060000400000000000000000175000000000000000001759600000000000031014991GARCIA LUIS                   000000000009964000000000000000000000000000000000000000000000000000000000000000000000000000000000000000000000000000000000PES00010000001000000000000000020200926
202009260060000400000000000000000172000000000000000001729600000000000031014991GARCIA LUIS                   000000000039964000000000000000000000000000000000000000000000000000000000000000000000000000000000000000000000000000000000PES00010000001000000000000000020200926
202009260060000400000000000000000173000000000000000001739600000000000031014991GARCIA LUIS                   000000000048447000000000000000000000000000000000000000000000000000000000000000000000000000000000000000000000000000000000PES00010000001000000000000000020200926
202009260060000400000000000000000174000000000000000001749600000000000031014991GARCIA LUIS                   000000000039964000000000000000000000000000000000000000000000000000000000000000000000000000000000000000000000000000000000PES00010000001000000000000000020200926
